:020000040800F2
:1000000000000000410400088545000893450008F1
:10001000994500089F450008A5450008000000001C
:10002000000000000000000000000000AB450008D8
:100030006D57000800000000A95400087957000817
:100040007957000879570008795700087957000850
:100050007957000879570008795700087957000840
:100060007957000879570008795700087957000830
:100070007957000879570008795700087957000820
:1004000010B5054C237833B9044B13B10448AFF34E
:1004100000800123237010BDF001002000000000C7
:10042000E4D8000808B5034B1BB103490348AFF3F8
:10043000008008BD00000000F4010020E4D800089E
:1004400072B6DFF840D01048016841F470010160D5
:100450000E490F4A0F4B914204D053F8040B41F858
:10046000040BF8E74FF000000B490C4A914202D010
:1004700041F8040BFAE704F04FF80AF009FD04F024
:100480002FF8FEE70000012088ED00E000000020CA
:10049000F001002038310108F0010020881100200F
:1004A00010F8012B11F8013B012A28BF9A42F7D01E
:1004B000D01A7047034613F8012B002AFBD1181AF3
:1004C000013870470000000000000000000000003C
:1004D00001F0FF01102A2BDB10F0070F08D010F8F5
:1004E000013B013A8B422DD010F0070F42B3F6D1F9
:1004F000F0B441EA012141EA014122F007047FF012
:1005000000070023F0E80256083C85EA010586EA68
:10051000010685FA47F5A3FA87F586FA47F6A5FAA4
:1005200087F68EB9EED1F0BC01F0FF0102F00702B0
:1005300032B110F8013B013A83EA010313B1F8D15B
:100540000020704701387047002D06BF354603383C
:10055000073815F0010F07D1013015F4807F02BF75
:10056000013015F4C03F0130F0BC0138704700BFC6
:1005700081F0004102E000BF83F0004330B54FEA54
:1005800041044FEA430594EA050F08BF90EA020FC1
:100590001FBF54EA000C55EA020C7FEA645C7FEA54
:1005A000655C00F0E2804FEA5454D4EB5555B8BF77
:1005B0006D420CDD2C4480EA020281EA030382EAE8
:1005C000000083EA010180EA020281EA0303362D7A
:1005D00088BF30BD11F0004F4FEA01314FF4801C4D
:1005E0004CEA113102D0404261EB410113F0004F5F
:1005F0004FEA03334CEA133302D0524263EB430316
:1006000094EA050F00F0A780A4F10104D5F1200EB3
:100610000DDB02FA0EFC22FA05F2801841F100010E
:1006200003FA0EF2801843FA05F359410EE0A5F1E2
:1006300020050EF1200E012A03FA0EFC28BF4CF013
:10064000020C43FA05F3C01851EBE37101F00045C9
:1006500007D54FF0000EDCF1000C7EEB00006EEBD6
:100660000101B1F5801F1BD3B1F5001F0CD3490860
:100670005FEA30004FEA3C0C04F101044FEA4452B7
:1006800012F5800F80F09A80BCF1004F08BF5FEA3E
:10069000500C50F1000041EB045141EA050130BD1E
:1006A0005FEA4C0C404141EB010111F4801FA4F1C1
:1006B0000104E9D191F0000F04BF01460020B1FA16
:1006C00081F308BF2033A3F10B03B3F120020CDA4E
:1006D0000C3208DD02F1140CC2F10C0201FA0CF02C
:1006E00021FA02F10CE002F11402D8BFC2F1200C91
:1006F00001FA02F120FA0CFCDCBF41EA0C01904047
:10070000E41AA2BF01EB0451294330BD6FEA04048F
:100710001F3C1CDA0C340EDC04F11404C4F120027A
:1007200020FA04F001FA02F340EA030021FA04F38C
:1007300045EA030130BDC4F10C04C4F1200220FAE3
:1007400002F001FA04F340EA0300294630BD21FA21
:1007500004F0294630BD94F0000F83F4801306BFE7
:1007600081F480110134013D4EE77FEA645C18BFDB
:100770007FEA655C29D094EA050F08BF90EA020F72
:1007800005D054EA000C04BF1946104630BD91EA6A
:10079000030F1EBF0021002030BD5FEA545C05D16D
:1007A0004000494128BF41F0004130BD14F58004AC
:1007B0003CBF01F5801130BD01F0004545F0FE4120
:1007C00041F470014FF0000030BD7FEA645C1ABF55
:1007D000194610467FEA655C1CBF0B46024650EA8C
:1007E000013406BF52EA033591EA030F41F40021B8
:1007F00030BD00BF90F0000F04BF0021704730B53E
:100800004FF4806404F132044FF000054FF0000112
:1008100050E700BF90F0000F04BF0021704730B5D3
:100820004FF4806404F1320410F0004548BF4042A8
:100830004FF000013EE700BF42004FEAE2014FEAFD
:1008400031014FEA02701FBF12F07F4393F07F4FD8
:1008500081F06051704732F07F4208BF704793F0DB
:100860007F4F04BF41F40021704730B54FF46074EE
:1008700001F0004521F000411CE700BF50EA0102F1
:1008800008BF704730B54FF000050AE050EA01029A
:1008900008BF704730B511F0004502D5404261EB0A
:1008A00041014FF4806404F132045FEA915C3FF44B
:1008B000D8AE4FF003025FEADC0C18BF03325FEAE8
:1008C000DC0C18BF033202EBDC02C2F1200300FA99
:1008D00003FC20FA02F001FA03FE40EA0E0021FABE
:1008E00002F11444BDE600BF70B54FF0FF0C4CF4AC
:1008F000E06C1CEA11541DBF1CEA135594EA0C0F5E
:1009000095EA0C0F00F0DEF82C4481EA030621EA98
:100910004C5123EA4C5350EA013518BF52EA0335D3
:1009200041F4801143F4801338D0A0FB02CE4FF085
:100930000005E1FB02E506F00042E0FB03E54FF0B5
:100940000006E1FB03569CF0000F18BF4EF0010EAD
:10095000A4F1FF04B6F5007F64F5407404D25FEAA9
:100960004E0E6D4146EB060642EAC62141EA55515C
:100970004FEAC52040EA5E504FEACE2EB4F1FD0C9E
:1009800088BFBCF5E06F1ED8BEF1004F08BF5FEA1C
:10099000500E50F1000041EB045170BD06F00046CE
:1009A00046EA010140EA020081EA0301B4EB5C047B
:1009B000C2BFD4EB0C0541EA045170BD41F4801173
:1009C0004FF0000E013C00F3AB8014F1360FDEBF98
:1009D000002001F0004170BDC4F10004203C35DA74
:1009E0000C341BDC04F11404C4F1200500FA05F3F7
:1009F00020FA04F001FA05F240EA020001F0004298
:100A000021F0004110EBD37021FA04F642EB06010D
:100A10005EEA430E08BF20EAD37070BDC4F10C0437
:100A2000C4F1200500FA04F320FA05F001FA04F2FB
:100A300040EA020001F0004110EBD37041F10001E7
:100A40005EEA430E08BF20EAD37070BDC4F12005F2
:100A500000FA05F24EEA020E20FA04F301FA05F25A
:100A600043EA020321FA04F001F0004121FA04F202
:100A700020EA020000EBD3705EEA430E08BF20EAD2
:100A8000D37070BD94F0000F0FD101F0004640000C
:100A900041EB010111F4801F08BF013CF7D041EA8E
:100AA000060195F0000F18BF704703F00046520092
:100AB00043EB030313F4801F08BF013DF7D043EA63
:100AC0000603704794EA0C0F0CEA135518BF95EA19
:100AD0000C0F0CD050EA410618BF52EA4306D1D1A0
:100AE00081EA030101F000414FF0000070BD50EABF
:100AF000410606BF1046194652EA430619D094EA49
:100B00000C0F02D150EA013613D195EA0C0F05D132
:100B100052EA03361CBF104619460AD181EA030186
:100B200001F0004141F0FE4141F470014FF000003E
:100B300070BD41F0FE4141F4780170BD70B54FF0D9
:100B4000FF0C4CF4E06C1CEA11541DBF1CEA135559
:100B500094EA0C0F95EA0C0F00F0A7F8A4EB05043B
:100B600081EA030E52EA03354FEA013100F0888032
:100B70004FEA03334FF0805545EA131343EA1263FB
:100B80004FEA022245EA111545EA10654FEA0026B0
:100B90000EF000419D4208BF964244F1FD0404F569
:100BA000407402D25B084FEA3202B61A65EB0305C5
:100BB0005B084FEA32024FF480104FF4002CB6EB82
:100BC000020E75EB030E22BFB61A754640EA0C0002
:100BD0005B084FEA3202B6EB020E75EB030E22BF42
:100BE000B61A754640EA5C005B084FEA3202B6EB83
:100BF000020E75EB030E22BFB61A754640EA9C0042
:100C00005B084FEA3202B6EB020E75EB030E22BF11
:100C1000B61A754640EADC0055EA060E18D04FEACF
:100C2000051545EA16754FEA06164FEAC30343EA6F
:100C300052734FEAC2025FEA1C1CC0D111F4801F3C
:100C40000BD141EA00014FF000004FF0004CB6E735
:100C500011F4801F04BF01430020B4F1FD0C88BFD4
:100C6000BCF5E06F3FF6AFAEB5EB030C04BFB6EBDF
:100C7000020C5FEA500C50F1000041EB045170BDD2
:100C80000EF0004E4EEA113114EB5C04C2BFD4EBFF
:100C90000C0541EA045170BD41F480114FF0000E83
:100CA000013C90E645EA060E8DE60CEA135594EAFF
:100CB0000C0F08BF95EA0C0F3FF43BAF94EA0C0F02
:100CC0000AD150EA01347FF434AF95EA0C0F7FF477
:100CD00025AF104619462CE795EA0C0F06D152EACB
:100CE00003353FF4FDAE1046194622E750EA4106AF
:100CF00018BF52EA43067FF4C5AE50EA41047FF4C0
:100D00000DAF52EA43057FF4EBAE12E74FF0FF3C24
:100D100006E000BF4FF0010C02E000BF4FF0010CF5
:100D20004DF804CD4FEA410C7FEA6C5C4FEA430C6E
:100D300018BF7FEA6C5C1BD001B050EA410C0CBFBD
:100D400052EA430C91EA030F02BF90EA020F00201F
:100D5000704710F1000F91EA030F58BF994208BF86
:100D600090422CBFD8176FEAE37040F00100704743
:100D70004FEA410C7FEA6C5C02D150EA013C07D19A
:100D80004FEA430C7FEA6C5CD6D152EA033CD3D0E5
:100D90005DF8040B704700BF8446104662468C46DF
:100DA0001946634600E000BF01B5FFF7B7FF002812
:100DB00048BF10F1000F01BD4DF808EDFFF7F4FF3B
:100DC0000CBF012000205DF808FB00BF4DF808EDC6
:100DD000FFF7EAFF34BF012000205DF808FB00BFE9
:100DE0004DF808EDFFF7E0FF94BF012000205DF80B
:100DF00008FB00BF4DF808EDFFF7CEFF94BF0120C0
:100E000000205DF808FB00BF4DF808EDFFF7C4FFB8
:100E100034BF012000205DF808FB00BF4FEA410C01
:100E20007FEA6C5C02D150EA013C0AD14FEA430CE4
:100E30007FEA6C5C02D152EA033C02D14FF0000021
:100E400070474FF0010070474FEA410212F500125F
:100E500015D211D56FF47873B3EB625212D94FEA01
:100E6000C12343F0004343EA505311F0004F23FAEB
:100E700002F018BF404270474FF00000704750EA40
:100E8000013005D111F0004008BF6FF000407047FD
:100E90004FF00000704700BF53B94AB9002908BF9E
:100EA00000281CBF4FF0FF314FF0FF3000F072B947
:100EB000ADF1080C6DE904CE00F006F8DDF804E0B1
:100EC000DDE9022304B070472DE9F047089E04468F
:100ED0008846002B4BD18A42154667D9B2FA82F276
:100EE0004AB1C2F1200701FA02F320FA07F7954050
:100EF00047EA030894404FEA154E230CB8FBFEF76F
:100F00001FFA85FC0EFB178843EA084307FB0CF128
:100F1000994209D9EB1807F1FF3080F01B81994203
:100F200040F21881023F2B445B1AA4B2B3FBFEF0DF
:100F30000EFB103344EA034400FB0CFCA44509D922
:100F40002C1900F1FF3380F00781A44540F20481A1
:100F500002382C4440EA0740A4EB0C0400271EB1E1
:100F6000D4400023C6E900433946BDE8F0878B42F0
:100F700009D9002E00F0EB800027C6E900013846B1
:100F80003946BDE8F087B3FA83F7002F47D18B428B
:100F900002D3824200F2FA80841A61EB030301203B
:100FA0009846002EE0D0C6E90048DDE702B9FFDE32
:100FB000B2FA82F2002A40F08F80491B4FEA154EA8
:100FC0001FFA85F80127B1FBFEFC230C0EFB1C1158
:100FD00043EA014308FB0CF1994207D9EB180CF1E5
:100FE000FF3002D2994200F2CD808446591AA3B252
:100FF000B1FBFEF00EFB101443EA044408FB00F8BA
:10100000A04507D92C1900F1FF3302D2A04500F208
:10101000B6801846A4EB080440EA0C409FE7C7F1ED
:10102000200CBB4022FA0CFE4EEA030E01FA07F434
:1010300020FA0CF521FA0CF34FEA1E482543B3FBC6
:10104000F8F92C0C08FB19331FFA8EFA44EA034313
:1010500009FB0AF49C4202FA07F200FA07F10BD9E5
:101060001EEB030309F1FF3080F087809C4240F2C1
:101070008480A9F1020973441B1BADB2B3FBF8F0E5
:1010800008FB103345EA034400FB0AFAA24508D9DD
:101090001EEB040400F1FF336BD2A24569D902387C
:1010A000744440EA0940A0FB0289A4EB0A044C45C1
:1010B000C2464B4654D351D0002E69D0B1EB0A053D
:1010C00064EB030404FA0CFCFD40FC404CEA05050B
:1010D000C6E90054002747E7C2F1200320FA03F7CE
:1010E000954001FA02F021FA03F34FEA154E384316
:1010F000010CB3FBFEF71FFA85F80EFB173341EA2C
:10110000034107FB08F38B4204FA02F407D969187C
:1011100007F1FF3C2FD28B422DD9023F2944CB1A35
:1011200081B2B3FBFEF00EFB103341EA034100FB3A
:1011300008F38B4207D9691800F1FF3C17D28B42A4
:1011400015D902382944C91A40EA07473BE7374610
:10115000304609E70746E7E61846FBE64145ABD2CD
:10116000B8EB020A69EB0E0201381346A4E76046A9
:10117000E9E7184695E76746D1E781467CE70238FC
:101180002C4447E7ACF1020C2B442FE7384608E724
:101190003746E9E6704700BF80B586B000AF78609B
:1011A00000233B617B681B6803F01003002B00F0F9
:1011B000D080A14B9B6803F00C03002B79D19E4B90
:1011C0001B6803F00203002B05D07B689B69002B92
:1011D00001D1012378E37B681A6A974B1B6803F0FF
:1011E0000803002B04D0944B1B6803F0F00305E0C8
:1011F000914BD3F894301B0903F0F003934223D2B0
:101200007B681B6A184600F061FD0346002B01D085
:10121000012359E3884B1B68874A43F00803136096
:10122000854B1B6823F0F0027B681B6A82491343DD
:101230000B60814B5B6823F47F427B68DB691B0298
:101240007D4913434B6022E07B4B1B687A4A43F095
:1012500008031360784B1B6823F0F0027B681B6A5D
:10126000754913430B60744B5B6823F47F427B68C2
:10127000DB691B02704913434B607B681B6A18468D
:1012800000F024FD0346002B01D001231CE300F0F5
:1012900039FC0146684B9B681B0903F00F03674A42
:1012A000D35C21FA03F3664A1360002002F0B2F81F
:1012B0004FE07B689B69002B32D05F4B1B685E4A16
:1012C00043F00103136003F077F9386108E003F09D
:1012D00073F902463B69D31A022B01D90323F3E2C7
:1012E000554B1B6803F00203002BF0D0524B1B68D8
:1012F000514A43F0080313604F4B1B6823F0F00280
:101300007B681B6A4C4913430B604B4B5B6823F4AF
:101310007F427B68DB691B02474913434B6018E03F
:10132000454B1B68444A23F00103136003F044F962
:10133000386108E003F040F902463B69D31A022BFA
:1013400001D90323C0E23C4B1B6803F00203002BCE
:10135000F0D17B681B6803F00103002B7AD0364B79
:101360009B6803F00C03082B0BD0334B9B6803F0F6
:101370000C030C2B11D1304BDB6803F00303032B60
:101380000BD12D4B1B6803F40033002B61D07B681D
:101390005B68002B5DD1012396E27B685B68B3F547
:1013A000803F06D1244B1B68234A43F480331360EB
:1013B0001DE07B685B68B3F5A02F0CD11E4B1B684A
:1013C0001D4A43F4802313601B4B1B681A4A43F4E5
:1013D000803313600BE0184B1B68174A23F48033EB
:1013E0001360154B1B68144A23F4802313607B6839
:1013F0005B68002B13D003F0DFF8386108E003F0DE
:10140000DBF802463B69D31A642B01D903235BE264
:10141000094B1B6803F40033002BF0D01AE003F0F3
:10142000CBF838610EE003F0C7F802463B69D31AE7
:10143000642B07D9032347E200100240A42D0108C2
:1014400004000020A94B1B6803F40033002BEAD1F1
:1014500000E000BF7B681B6803F00203002B69D02B
:10146000A24B9B6803F00C03042B0BD09F4B9B6893
:1014700003F00C030C2B1CD19C4BDB6803F0030323
:10148000022B16D1994B1B6803F48063002B05D007
:101490007B68DB68002B01D1012315E2934B5B686D
:1014A00023F0F8527B681B691B06904913434B607D
:1014B00040E07B68DB68002B23D08C4B1B688B4A99
:1014C00043F48073136003F077F8386108E003F0A9
:1014D00073F802463B69D31A022B01D90323F3E1C7
:1014E000824B1B6803F48063002BF0D07F4B5B685A
:1014F00023F0F8527B681B691B067C4913434B6041
:1015000018E07A4B1B68794A23F48073136003F068
:1015100053F8386108E003F04FF802463B69D31AEC
:10152000022B01D90323CFE1704B1B6803F48063C6
:10153000002BF0D17B681B6803F00803002B3CD024
:101540007B685B69002B1CD0684BD3F89430674AEA
:1015500043F00103C2F8943003F02EF8386108E03C
:1015600003F02AF802463B69D31A022B01D9032360
:10157000AAE15E4BD3F8943003F00203002BEFD0C6
:101580001BE05A4BD3F89430584A23F00103C2F8B9
:10159000943003F011F8386108E003F00DF80246CA
:1015A0003B69D31A022B01D903238DE14F4BD3F8AA
:1015B000943003F00203002BEFD17B681B6803F02B
:1015C0000403002B00F0A6800023FB75474B9B6DA6
:1015D00003F08053002B0DD1444B9B6D434A43F0E5
:1015E00080539365414B9B6D03F08053FB60FB6818
:1015F0000123FB753E4B1B6803F48073002B18D14D
:101600003B4B1B683A4A43F48073136002F0D4FFEB
:10161000386108E002F0D0FF02463B69D31A022B82
:1016200001D9032350E1324B1B6803F48073002B74
:10163000F0D07B689B68012B08D12C4BD3F89030FD
:101640002A4A43F00103C2F8903024E07B689B688B
:10165000052B10D1254BD3F89030244A43F00403D6
:10166000C2F89030214BD3F89030204A43F0010368
:10167000C2F890300FE01D4BD3F890301B4A23F096
:101680000103C2F89030194BD3F89030174A23F079
:101690000403C2F890307B689B68002B16D002F0E0
:1016A0008BFF38610AE002F087FF02463B69D31ADC
:1016B00041F28832934201D9032305E10B4BD3F861
:1016C000903003F00203002BEDD01AE002F074FF1B
:1016D00038610FE002F070FF02463B69D31A41F215
:1016E0008832934206D90323EEE000BF0010024087
:1016F00000700040764BD3F8903003F00203002BCB
:10170000E8D1FB7D012B05D1714B9B6D704A23F015
:10171000805393657B681B6803F02003002B3CD04B
:101720007B685B6A002B1CD0694BD3F89830684A01
:1017300043F00103C2F8983002F03EFF386108E040
:1017400002F03AFF02463B69D31A022B01D9032368
:10175000BAE05F4BD3F8983003F00203002BEFD0D0
:101760001BE05B4BD3F89830594A23F00103C2F8D1
:10177000983002F021FF386108E002F01DFF0246B8
:101780003B69D31A022B01D903239DE0504BD3F8B8
:10179000983003F00203002BEFD17B689B6A002B8B
:1017A00000F091804A4B9B6803F00C030C2B00F077
:1017B00088807B689B6A022B55D1454B1B68444A45
:1017C00023F08073136002F0F7FE386108E002F046
:1017D000F3FE02463B69D31A022B01D9032373E0BF
:1017E0003B4B1B6803F00073002BF0D17B681B6B35
:1017F000013B1A017B685B6B1B021A437B68DB6A47
:101800001A437B68DB6B5B08013B5B051A437B6813
:101810001B6C5B08013B5B061A437B689B6BDB061A
:101820002B491343CB602A4B1B68294A43F0807332
:101830001360274BDB68264A43F08073D36002F0C5
:10184000BBFE386108E002F0B7FE02463B69D31ADE
:10185000022B01D9032337E01D4B1B6803F00073F3
:10186000002BF0D02FE01A4B1B68194A23F080732D
:101870001360174B1B6803F00063002B05D1144B5A
:10188000DB68134A23F00303D360114BDB68104A73
:1018900023F0887323F48033D36002F08DFE386127
:1018A00008E002F089FE02463B69D31A022B01D9F7
:1018B000032309E0064B1B6803F00073002BF0D1F3
:1018C00001E0012300E0002318461837BD4680BD23
:1018D0000010024080B584B000AF7860396000230A
:1018E000FB60844B1B6803F007033A689A4210D9E7
:1018F000804B1B6823F007027E493B6813430B6053
:101900007C4B1B6803F007033A689A4201D001231D
:10191000ECE07B681B6803F00103002B00F08E8075
:101920007B685B68032B07D1734B1B6803F0007364
:10193000002B21D10123D9E07B685B68022B07D102
:101940006D4B1B6803F40033002B15D10123CDE050
:101950007B685B68002B07D1674B1B6803F00203B1
:10196000002B09D10123C1E0634B1B6803F48063A2
:10197000002B01D10123B9E05F4B9B6823F00302E8
:101980007B685B685C4913438B6002F015FEF8606E
:101990007B685B68032B12D10AE002F00DFE024661
:1019A000FB68D31A41F28832934201D903239DE0A8
:1019B000514B9B6803F00C030C2BEED13EE07B688F
:1019C0005B68022B12D10AE002F0F6FD0246FB68CA
:1019D000D31A41F28832934201D9032386E0464B61
:1019E0009B6803F00C03082BEED127E07B685B6853
:1019F000002B1DD10AE002F0DFFD0246FB68D31A7E
:101A000041F28832934201D903236FE03A4B9B683D
:101A100003F00C03002BEED110E002F0CDFD0246E6
:101A2000FB68D31A41F28832934201D903235DE067
:101A3000314B9B6803F00C03042BEED17B681B68D1
:101A400003F00203002B08D02B4B9B6823F0F0021D
:101A50007B689B68284913438B60264B1B6803F007
:101A600007033A689A4210D2224B1B6823F0070200
:101A700020493B6813430B601E4B1B6803F00703B0
:101A80003A689A4201D0012330E07B681B6803F07A
:101A90000403002B08D0184B9B6823F4E0627B689A
:101AA000DB68154913438B607B681B6803F00803F0
:101AB000002B09D0104B9B6823F460527B681B6994
:101AC000DB000D4913438B6000F01CF801460A4B04
:101AD0009B681B0903F00F03084AD35C21FA03F348
:101AE000074A1360002001F095FC002318461037C8
:101AF000BD4680BD0020024000100240A42D010818
:101B00000400002080B487B000AF00237B61002375
:101B10003B610023BB6002237B6002233B60002308
:101B2000FB604C4B9B6803F00C03002B0BD0494B24
:101B30009B6803F00C030C2B27D1464BDB6803F0AA
:101B40000303012B21D1434B1B6803F00803002B37
:101B500007D1404BD3F894301B0A03F00F037B618D
:101B600005E03C4B1B681B0903F00F037B613A4AFD
:101B70007B6952F823307B61364B9B6803F00C0382
:101B8000002B13D17B69FB6010E0324B9B6803F0A4
:101B90000C03042B02D1314BFB6007E02D4B9B68FB
:101BA00003F00C03082B01D12D4BFB60294B9B68E4
:101BB00003F00C030C2B45D1264BDB6803F0030329
:101BC000BB60244BDB681B0903F0070301333B6058
:101BD000BB68022B02D0032B0DD019E01F4A3B68D3
:101BE000B2FBF3F31B4AD268120A02F07F0202FB37
:101BF00003F33B6119E01A4A3B68B2FBF3F3154A61
:101C0000D268120A02F07F0202FB03F33B610CE090
:101C10007A693B68B2FBF3F30E4AD268120A02F00B
:101C20007F0202FB03F33B6100BF0A4BDB685B0EE4
:101C300003F0030301335B007B603A697B68B2FB0E
:101C4000F3F3FB60FB6818461C37BD465DF8047B68
:101C5000704700BF00100240BC2D01080024F400B2
:101C600000127A0080B400AF034B1B681846BD46D3
:101C70005DF8047B704700BF0400002080B500AF12
:101C8000FFF7F0FF0146054B9B681B0A03F00703B3
:101C9000034AD35C21FA03F3184680BD00100240CA
:101CA000B42D010880B500AFFFF7DCFF0146054BFE
:101CB0009B68DB0A03F00703034AD35C21FA03F3B2
:101CC000184680BD00100240B42D010880B586B0D2
:101CD00000AF786000237B6100233B612A4B9B6D42
:101CE00003F08053002B03D000F052F8786114E029
:101CF000254B9B6D244A43F080539365224B9B6D8B
:101D000003F08053FB60FB6800F042F878611E4BE3
:101D10009B6D1D4A23F0805393657B69B3F5007F6B
:101D20000BD17B68802B19D97B68A02B02D90223A9
:101D30003B6113E001233B6110E07B68802B02D9FB
:101D400003233B610AE07B68802B02D102233B61C5
:101D500004E07B68702B01D101233B610B4B1B68B6
:101D600023F0070209493B6913430B60074B1B68CB
:101D700003F007033A699A4201D0012300E00023EF
:101D800018461837BD4680BD0010024000200240B2
:101D900080B400AF044B1B6803F4C0631846BD4613
:101DA0005DF8047B704700BF0070004080B485B0D0
:101DB00000AF78600023FB607B68B3F5007F2FD114
:101DC000224B1B6803F4C063B3F5007F37D01F4B71
:101DD0001B6823F4C0631D4A43F4007313601C4B5B
:101DE0001B681C4AA2FB03239B0C322202FB03F359
:101DF000FB6002E0FB68013BFB60FB68002B06D048
:101E0000124B5B6903F48063B3F5806FF2D00F4B24
:101E10005B6903F48063B3F5806F10D103230FE097
:101E20000A4B1B6803F4C063B3F5806F07D0074B00
:101E30001B6823F4C063054A43F4806313600023E6
:101E400018461437BD465DF8047B704700700040AB
:101E50000400002083DE1B4380B400AF054B1B68E9
:101E6000044A43F48073136000BFBD465DF8047BF1
:101E7000704700BF0070004080B487B000AF78604A
:101E8000396000237B610023FB6000233B6154E148
:101E90003B681A6801217B6901FA03F31340FB6078
:101EA000FB68002B00F046813B685B68022B03D087
:101EB0003B685B68122B23D17B69DA087B680832A8
:101EC00053F822303B617B6903F007039B000F222C
:101ED00002FA03F3DB433A6913403B613B681A693A
:101EE0007B6903F007039B0002FA03F33A6913438B
:101EF0003B617B69DA087B680832396943F8221054
:101F00007B681B683B617B695B00032202FA03F379
:101F1000DB433A6913403B613B685B6803F00302B3
:101F20007B695B0002FA03F33A6913433B617B6808
:101F30003A691A603B685B68012B0BD03B685B68B1
:101F4000022B07D03B685B68112B03D03B685B68B2
:101F5000122B30D17B689B683B617B695B0003225D
:101F600002FA03F3DB433A6913403B613B68DA68EA
:101F70007B695B0002FA03F33A6913433B617B68B8
:101F80003A699A607B685B683B6101227B6902FA6F
:101F900003F3DB433A6913403B613B685B681B0911
:101FA00003F001027B6902FA03F33A6913433B61D0
:101FB0007B683A695A607B68DB683B617B695B00E0
:101FC000032202FA03F3DB433A6913403B613B68A7
:101FD0009A687B695B0002FA03F33A6913433B6139
:101FE0007B683A69DA603B685B6803F08053002BDA
:101FF00000F0A080584B1B6E574A43F00103136654
:10200000554B1B6E03F00103BB60BB68534A7B69F1
:102010009B08023352F823303B617B6903F00303D2
:102020009B000F2202FA03F3DB433A6913403B6142
:102030007B68B3F1904F19D07B68494A934213D023
:102040007B68484A93420DD07B68474A934207D049
:102050007B68464A934201D1042308E0072306E047
:10206000032304E0022302E0012300E000237A6955
:1020700002F00302920093403A6913433B613749EF
:102080007B699B0802333A6941F82320384B1B686F
:102090003B61FB68DB433A6913403B613B685B682B
:1020A00003F48033002B03D03A69FB6813433B6190
:1020B0002F4A3B6913602E4B5B683B61FB68DB4337
:1020C0003A6913403B613B685B6803F40033002BC3
:1020D00003D03A69FB6813433B61254A3B6953606F
:1020E000234B9B683B61FB68DB433A6913403B61D0
:1020F0003B685B6803F48013002B03D03A69FB68EC
:1021000013433B611A4A3B699360194BDB683B619F
:10211000FB68DB433A6913403B613B685B6803F44F
:102120000013002B03D03A69FB6813433B61104A4C
:102130003B69D3607B6901337B613B681A687B69CB
:1021400022FA03F3002B7FF4A3AE00BF1C37BD4679
:102150005DF8047B704700BF0010024000000140A2
:102160000004004800080048000C00480010004827
:102170000004014080B483B000AF78600B467B80E0
:1021800013467B707B78002B03D07A887B689A613A
:1021900002E07A887B689A6200BF0C37BD465DF822
:1021A000047B704780B586B000AF786000237B6108
:1021B0000023FB600023FB740023BB747B681B6857
:1021C00003F40063002B2FD07B685B6CB3F5000F2A
:1021D00005D0B3F5400F15D0002B07D00FE05A4BB8
:1021E000DB68594A43F48033D3600CE07B680433E6
:1021F0000021184600F0EAF90346FB7403E00123CE
:10220000FB7400E000BFFB7C002B0BD14E4BD3F8DE
:10221000883023F440027B685B6C4B491343C1F860
:10222000883001E0FB7CBB747B681B6803F40033DF
:10223000002B00F0988000237B74434B9B6D03F0D0
:102240008053002B0DD1404B9B6D3F4A43F0805390
:1022500093653D4B9B6D03F08053BB60BB680123CE
:102260007B743A4B1B68394A43F48073136002F065
:10227000A3F9F86009E002F09FF90246FB68D31A5F
:10228000022B02D90323FB7405E0304B1B6803F4D7
:102290008073002BEFD0FB7C002B59D12A4BD3F855
:1022A000903003F440737B617B69002B1ED07B6808
:1022B0009B6D7A699A4219D0234BD3F8903023F45E
:1022C00040737B61204BD3F890301F4A43F4803336
:1022D000C2F890301C4BD3F890301B4A23F4803363
:1022E000C2F89030184A7B69C2F890307B6903F0DD
:1022F0000103002B16D002F05FF9F8600BE002F04A
:102300005BF90246FB68D31A41F28832934202D944
:102310000323FB7406E00C4BD3F8903003F0020368
:10232000002BECD0FB7C002B0BD1074BD3F890306B
:1023300023F440727B689B6D03491343C1F89030CE
:1023400008E0FB7CBB7405E0001002400070004018
:10235000FB7CBB747B7C012B05D19B4B9B6D9A4A0C
:1023600023F0805393657B681B6803F00103002B07
:102370000AD0954BD3F8883023F003027B681B6AA0
:1023800091491343C1F888307B681B6803F002034E
:10239000002B0AD08C4BD3F8883023F00C027B68DA
:1023A0005B6A89491343C1F888307B681B6803F076
:1023B0000403002B0AD0844BD3F8883023F030027A
:1023C0007B689B6A80491343C1F888307B681B682F
:1023D00003F02003002B0AD07B4BD3F8883023F482
:1023E00040627B68DB6A78491343C1F888307B68B8
:1023F0001B6803F40073002B0AD0734BD3F88830AA
:1024000023F440227B68DB6B6F491343C1F88830AB
:102410007B681B6803F48063002B0AD06A4BD3F8F7
:10242000883023F440127B681B6C67491343C1F862
:1024300088307B681B6803F04003002B0AD0624B96
:10244000D3F8883023F440527B681B6B5E491343FA
:10245000C1F888307B681B6803F08003002B0AD02A
:10246000594BD3F8883023F440427B685B6B564964
:102470001343C1F888307B681B6803F48073002B1A
:102480000AD0514BD3F8883023F440327B689B6BE1
:102490004D491343C1F888307B681B6803F400235F
:1024A000002B28D0484BD3F8883023F040627B685B
:1024B0009B6C45491343C1F888307B689B6CB3F132
:1024C000006F06D1404BDB683F4A43F48013D36072
:1024D00011E07B689B6CB3F1806F0CD17B68043397
:1024E0000121184600F072F80346FB74FB7C002BB8
:1024F00001D0FB7CBB747B681B6803F48023002B3A
:1025000028D0314BD3F8883023F040627B68DB6CF5
:102510002D491343C1F888307B68DB6CB3F1006F41
:1025200006D1294BDB68284A43F48013D36011E0BD
:102530007B68DB6CB3F1806F0CD17B6804330121C5
:10254000184600F043F80346FB74FB7C002B01D0D7
:10255000FB7CBB747B681B6803F48043002B1CD09E
:10256000194BD3F8883023F040527B681B6D164915
:102570001343C1F888307B681B6DB3F1805F0CD1C9
:102580007B6804330221184600F020F80346FB74F0
:10259000FB7C002B01D0FB7CBB747B681B6803F4C5
:1025A0000043002B0AD0084BD3F8883023F0804238
:1025B0007B685B6D04491343C1F88830BB7C1846C7
:1025C0001837BD4680BD00BF0010024080B584B002
:1025D00000AF786039600023BB600023FB73734B4E
:1025E000DB6803F00303002B18D0704BDB6803F0AB
:1025F00003027B681B689A420DD17B681B68002B25
:1026000009D06A4BDB681B0903F007035A1C7B687F
:102610005B689A4244D00123FB7341E07B681B68EE
:10262000022B0CD0032B13D0012B20D15F4B1B6846
:1026300003F00203002B1DD10123FB731AE05B4B57
:102640001B6803F48063002B16D10123FB7313E096
:10265000564B1B6803F40033002B0FD1534B1B6800
:1026600003F48023002B09D10123FB7306E001232F
:10267000FB7304E000BF02E000BF00E000BFFB7B93
:10268000002B0DD1494BDB6823F073027B6819687E
:102690007B685B68013B1B010B4344491343CB60E0
:1026A000FB7B002B7CD1414B1B68404A23F08063AD
:1026B000136001F081FFB86009E001F07DFF024680
:1026C000BB68D31A022B02D90323FB7305E0374BF7
:1026D0001B6803F00063002BEFD1FB7B002B5FD165
:1026E0003B68002B10D1314B1B6923F0784323F456
:1026F000FE437A68926811027A68D268D2060A4369
:102700002A4913430B6127E03B68012B12D1274B69
:102710001B6923F4C00323F4FE437A689268110214
:102720007A6812695208013A52050A431F49134355
:102730000B6111E01D4B1B6923F0C06323F4FE43C2
:102740007A68926811027A6852695208013A520610
:102750000A43164913430B61144B1B68134A43F099
:102760008063136001F028FFB86009E001F024FFE6
:102770000246BB68D31A022B02D90323FB7305E080
:102780000A4B1B6803F00063002BEFD0FB7B002B90
:1027900006D1064B1A697B689B69044913430B6198
:1027A000FB7B18461037BD4680BD00BF00100240BD
:1027B00080B485B000AF78607B6803F00703FB60EE
:1027C0000C4BDB68BB60BA684FF6FF031340BB607D
:1027D000FB681A02BB68134343F0BF6343F4003342
:1027E000BB60044ABB68D36000BF1437BD465DF8C8
:1027F000047B704700ED00E080B400AF044BDB6861
:102800001B0A03F007031846BD465DF8047B7047BA
:1028100000ED00E080B483B000AF0346FB7197F990
:102820000730002B0BDBFB7903F01F02074997F9F8
:1028300007305B09012000FA02F241F8232000BFB3
:102840000C37BD465DF8047B704700BF00E100E037
:1028500080B483B000AF03463960FB7197F907304D
:10286000002B0ADB3B68DAB20C4997F907301201FA
:10287000D2B20B4483F800230AE03B68DAB208497D
:10288000FB7903F00F03043B1201D2B20B441A761A
:1028900000BF0C37BD465DF8047B704700E100E0E7
:1028A00000ED00E080B489B000AFF860B9607A60F4
:1028B000FB6803F00703FB61FB69C3F10703042B0B
:1028C00028BF0423BB61FB690433062B02D9FB69D3
:1028D000033B00E000237B614FF0FF32BB6902FA4B
:1028E00003F3DA43BB681A407B699A404FF0FF312B
:1028F0007B6901FA03F3D9437B680B401343184605
:102900002437BD465DF8047B7047000080B582B077
:1029100000AF78607B68013BB3F1807F01D3012376
:102920000FE00A4A7B68013B53600F214FF0FF30F4
:10293000FFF78EFF054B00229A60044B07221A60B6
:10294000002318460837BD4680BD00BF10E000E0F8
:1029500080B582B000AF78607868FFF729FF00BFCC
:102960000837BD4680BD80B586B000AF0346B9606C
:102970007A60FB7300237B61FFF73EFF78617A6822
:10298000B9687869FFF78EFF024697F90F30114654
:102990001846FFF75DFF00BF1837BD4680BD80B504
:1029A00082B000AF0346FB7197F907301846FFF776
:1029B00031FF00BF0837BD4680BD80B582B000AF93
:1029C00078607868FFF7A2FF034618460837BD46CF
:1029D00080BD80B582B000AF78607B68002B01D1EC
:1029E000012343E07B6893F87130DBB2002B06D102
:1029F0007B68002283F87020786801F08BFE7B688A
:102A0000242283F871207B681B681A687B681B6826
:102A100022F001021A60786800F0D6F80346012B14
:102A200001D1012322E07B685B6A002B02D0786829
:102A300000F0A6FB7B681B685A687B681B6822F461
:102A400090425A607B681B689A687B681B6822F01A
:102A50002A029A607B681B681A687B681B6842F0D0
:102A600001021A60786800F02DFC0346184608370A
:102A7000BD4680BD80B588B002AFF860B9603B60EC
:102A80001346FB8000237B61FB6893F87130DBB257
:102A9000202B06D0FB6893F87130DBB2222B40F07C
:102AA0008E80BB68002B02D0FB88002B01D1012354
:102AB00086E0FB6893F87030012B01D102237FE0A0
:102AC000FB68012283F87020FB6800225A67FB68CC
:102AD00093F87130DBB2222B04D1FB68232283F8F8
:102AE000712003E0FB68212283F8712001F064FD6E
:102AF0007861FB68FA88A3F85020FB68FA88A3F88D
:102B0000522034E0FB68B3F852309BB2013B9AB2DA
:102B1000FB68A3F852203B6800937B690022802168
:102B2000F86800F018FC0346002B01D0032347E0AF
:102B3000FB689B68B3F5805F11D1FB681B69002BB4
:102B40000DD1BB683B613B691A88FB681B68C2F307
:102B5000080292B21A85BB680233BB6007E0BB680B
:102B60005A1CBA601A78FB681B6892B21A85FB6817
:102B7000B3F852309BB2002BC4D13B6800937B6901
:102B800000224021F86800F0E6FB0346002B01D04C
:102B9000032315E0FB6893F87130DBB2232B04D1DB
:102BA000FB68222283F8712003E0FB68202283F86F
:102BB0007120FB68002283F87020002300E00223CC
:102BC00018461837BD4680BD2DE9904886B000AF45
:102BD000786000237B611023FB740023BB810023FA
:102BE0003B820023FB737B689A687B681B691A43EE
:102BF0007B685B691A437B68DB6913437B617B6895
:102C00001B681A68AF4B13407A68126879690B43E6
:102C100013607B681B685B6823F440517B68DA684B
:102C20007B681B680A435A607B689B697B617B6891
:102C30001B68A54A934204D07B681B6A7A691343D8
:102C40007B617B681B689B6823F430617B681B6831
:102C50007A690A439A607B681B689C4A934221D137
:102C60009B4BD3F8883003F00303032B16D801A243
:102C700052F823F0852C0008912C00088B2C0008BA
:102C8000972C00080123FB7496E00223FB7493E069
:102C90000423FB7490E00823FB748DE01023FB7485
:102CA00000BF89E07B681B688A4A934234D1884B15
:102CB000D3F8883003F00C030C2B29D801A252F86A
:102CC00023F000BFF92C0008112D0008112D000879
:102CD000112D0008052D0008112D0008112D0008E8
:102CE000112D0008FF2C0008112D0008112D0008DF
:102CF000112D00080B2D00080023FB745CE002235B
:102D0000FB7459E00423FB7456E00823FB7453E082
:102D10001023FB7400BF4FE07B681B686E4A934230
:102D200020D16B4BD3F8883003F03003102B0FD039
:102D3000102B02D8002B05D010E0202B05D0302B13
:102D400009D00BE00023FB7436E00223FB7433E070
:102D50000423FB7430E00823FB742DE01023FB7484
:102D600000BF29E07B681B68574A934223D1584B28
:102D7000D3F8883003F44063B3F5806F12D0B3F515
:102D8000806F02D8002B07D012E0B3F5006F06D099
:102D9000B3F5406F09D00BE00023FB740CE0022375
:102DA000FB7409E00423FB7406E00823FB7403E0D2
:102DB0001023FB7400E000BF7B681B68424A93420B
:102DC00040F0F68000237B61FB7C082B23D801A216
:102DD00052F823F0F92D0008172E0008012E0008E4
:102DE000172E0008072E0008172E0008172E0008BF
:102DF000172E00080F2E0008FEF740FF78610DE047
:102E0000364B7B610AE0FEF77DFE786106E04FF409
:102E100000437B6102E00123FB7300BF7B69002B51
:102E200000F0A5817B685A6813465B0013447A69F9
:102E30009A4205D37B685B681B037A699A4202D980
:102E40000123FB7393E1FB7C082B00F29E8001A21F
:102E500052F823F0792E00088B2F0008E12E00088D
:102E60008B2F0008152F00088B2F00088B2F0008D0
:102E70008B2F0008612F0008FEF700FF034619465C
:102E80004FF000024FF000034FF00004140244EA38
:102E900011640B027A685268520811464FF0000222
:102EA00013EB010B44EB020C584661467B685B68F0
:102EB0004FF000041A462346FDF7EEFF03460C468A
:102EC0007B6165E0F369FFEF00800040003801405E
:102ED0000010024000440040004800400024F4007C
:102EE0007B685B685B084FF00004A4494FF0000268
:102EF00013EB010B44EB020C584661467B685B68A0
:102F00004FF000041A462346FDF7C6FF03460C4661
:102F10007B613DE0FEF7F6FD034619464FF00002E7
:102F20004FF000034FF00004140244EA11640B0256
:102F30007A685268520811464FF0000213EB010BF9
:102F400044EB020C584661467B685B684FF0000416
:102F50001A462346FDF7A0FF03460C467B6117E0A7
:102F60007B685B685B084FF0000413F5000044F1D8
:102F700000017B685B684FF000041A462346FDF7AA
:102F80008BFF03460C467B6102E00123FB7300BF0D
:102F90007B69B3F5407F08D37B69B3F5801F04D20A
:102FA0007B681B687A69DA60E1E00123FB73DEE08D
:102FB0007B68DB69B3F5004F6FD1FB7C082B57D8DA
:102FC00001A252F823F000BFED2F000809300008DD
:102FD00025300008713000083F30000871300008CB
:102FE00071300008713000085B300008FEF746FEC3
:102FF00003465A007B685B685B081A447B685B6821
:10300000B2FBF3F33B8236E0FEF74CFE03465A0078
:103010007B685B685B081A447B685B68B2FBF3F310
:103020003B8228E07B685B685B0803F1F47303F57F
:1030300090437A685268B3FBF2F33B821BE0FEF7E1
:1030400061FD03465A007B685B685B081A447B6835
:103050005B68B2FBF3F33B820DE07B685B685B0867
:1030600003F580327B685B68B2FBF3F33B8202E0DE
:103070000123FB7300BF3B8A23F00F03BB813B8A14
:103080005B109BB203F007039AB2BB891343BB8169
:103090007B681B68BA89DA6069E0FB7C082B63D81F
:1030A00001A252F823F000BFCD300008ED30000837
:1030B0000D310008693100082D3100086931000820
:1030C00069310008693100084D310008FEF7D6FD6E
:1030D00002467B685B685B081A447B685B68B2FBEE
:1030E000F3F39AB27B681B68DA6040E0FEF7DAFD22
:1030F00002467B685B685B081A447B685B68B2FBCE
:10310000F3F39AB27B681B68DA6030E07B685B6837
:103110005B0803F5740303F510537A685268B3FB38
:10312000F2F39AB27B681B68DA6020E0FEF7EAFCF3
:1031300002467B685B685B081A447B685B68B2FB8D
:10314000F3F39AB27B681B68DA6010E07B685B6817
:103150005B0803F500427B685B68B2FBF3F39AB24D
:103160007B681B68DA6002E00123FB7300BFFB7B16
:1031700018461837BD46BDE8908800BF000024F40B
:1031800080B483B000AF78607B685B6A03F00103B2
:10319000002B0AD07B681B685B6823F400317B68D6
:1031A0009A6A7B681B680A435A607B685B6A03F013
:1031B0000203002B0AD07B681B685B6823F4803114
:1031C0007B68DA6A7B681B680A435A607B685B6AC3
:1031D00003F00403002B0AD07B681B685B6823F4B0
:1031E00080217B681A6B7B681B680A435A607B6886
:1031F0005B6A03F00803002B0AD07B681B685B68DE
:1032000023F400417B685A6B7B681B680A435A6051
:103210007B685B6A03F01003002B0AD07B681B6895
:103220009B6823F480517B689A6B7B681B680A4318
:103230009A607B685B6A03F02003002B0AD07B68EE
:103240001B689B6823F400517B68DA6B7B681B6802
:103250000A439A607B685B6A03F04003002B1AD034
:103260007B681B685B6823F480117B681A6C7B6841
:103270001B680A435A607B681B6CB3F5801F0AD138
:103280007B681B685B6823F4C0017B685A6C7B68B1
:103290001B680A435A607B685B6A03F08003002B5B
:1032A0000AD07B681B685B6823F400217B689A6CFA
:1032B0007B681B680A435A6000BF0C37BD465DF847
:1032C000047B704780B586B002AF78600023FB6056
:1032D0007B6800225A6701F06FF9F8607B681B6811
:1032E0001B6803F00803082B0ED16FF07E43009398
:1032F000FB6800224FF40011786800F02CF80346B8
:10330000002B01D0032322E07B681B681B6803F0BD
:103310000403042B0ED16FF07E430093FB68002260
:103320004FF48001786800F016F80346002B01D0B6
:1033300003230CE07B68202283F871207B68202225
:1033400083F872207B68002283F8702000231846DF
:103350001037BD4680BD80B584B000AFF860B9605D
:103360003B601346FB712CE0BB69B3F1FF3F28D0F3
:10337000BB69002B07D001F01FF902463B68D31A46
:10338000BA699A421DD2FB681B681A68FB681B6801
:1033900022F4D0721A60FB681B689A68FB681B688D
:1033A00022F001029A60FB68202283F87120FB68FA
:1033B000202283F87220FB68002283F87020032308
:1033C0000FE0FB681B68DA69BB681340BA689A4271
:1033D0000CBF01230023DBB21A46FB799A42C3D00B
:1033E000002318461037BD4680BD80B500AF0320CE
:1033F000FFF7AEFA002000F00DF800F003F800230C
:10340000184680BD80B400AF00BFBD465DF8047BA8
:103410007047000080B582B000AF7860094B1B6830
:10342000094AA2FB03239B091846FFF7C6FA0022AC
:1034300079684FF0FF30FFF796FA002318460837F7
:10344000BD4680BD04000020D34D621080B584B01D
:1034500000AF78607B68002B01D101237CE07B68A2
:1034600000229A627B6893F85D30DBB2002B06D1B4
:103470007B68002283F85C20786801F05BFC7B6845
:10348000022283F85D207B681B681A687B681B68D2
:1034900022F040021A607B68DB68B3F5E06F02D966
:1034A0000023FB6002E04FF48053FB607B68DB6825
:1034B000B3F5706F07D07B68DB68B3F5E06F02D0BF
:1034C0007B6800229A627B681B6B002B0BD17B68A8
:1034D000DB68B3F5E06F03D97B6802221A6302E070
:1034E0007B6801221A637B685A687B689B681A4371
:1034F0007B681B691A437B685B691A437B689B691D
:1035000003F400731A437B68DB691A437B681B6A08
:1035100042EA03017B689A6A7B681B680A431A6067
:103520007B689B691B0C03F004027B685B6A1A438F
:103530007B685B6B1A437B68DB6842EA03017B684C
:103540001B68FA680A435A607B6800221A667B6827
:10355000012283F85D20002318461037BD4680BD48
:1035600080B588B000AFF860B9603B601346FB805F
:103570000023BB610023FB77FB6893F85C30012BD1
:1035800001D102233EE1FB68012283F85C2001F0B7
:1035900013F8B861FB6893F85D30DBB2012B02D001
:1035A0000223FB7725E1BB68002B02D0FB88002BB0
:1035B00002D10123FB771CE1FB68032283F85D2025
:1035C000FB6800221A66FB68BA689A63FB68FA888F
:1035D0009A87FB68FA88DA87FB6800221A64FB681E
:1035E0000022A3F84420FB680022A3F84620FB68D1
:1035F00000221A65FB680022DA64FB689B68B3F559
:10360000004F07D1FB681B681A68FB681B6842F40F
:1036100080421A60FB681B681B6803F04003402B64
:1036200007D0FB681B681A68FB681B6842F0400201
:103630001A60FB68DB68B3F5E06F47D9FB685B682D
:10364000002B04D0FB68DB8F9BB2012B38D1BB6809
:103650001A88FB681B68DA60BB680233BB60FB68D2
:10366000DB8F9BB2013B9AB2FB68DA8728E0FB68EC
:103670001B689B6803F00203022B0FD1BB681A88FA
:10368000FB681B68DA60BB680233BB60FB68DB8FDA
:103690009BB2013B9AB2FB68DA8711E03B68002BD2
:1036A0000BD03B68B3F1FF3F0AD000F085FF024624
:1036B000BB69D31A3A689A4202D80323FB7798E091
:1036C000FB68DB8F9BB2002BD1D170E0FB685B689D
:1036D000002B04D0FB68DB8F9BB2012B62D1FB680F
:1036E000DB8F9BB2012B0FD9BB681A88FB681B6864
:1036F000DA60BB680233BB60FB68DB8F9BB2023BC6
:103700009AB2FB68DA874DE0BB685A1CBA60FA6867
:1037100012680C321B781370FB68DB8F9BB2013B85
:103720009AB2FB68DA873DE0FB681B689B6803F090
:103730000203022B24D1FB68DB8F9BB2012B0FD934
:10374000BB681A88FB681B68DA60BB680233BB6021
:10375000FB68DB8F9BB2023B9AB2FB68DA8721E001
:10376000BB685A1CBA60FA6812680C321B78137076
:10377000FB68DB8F9BB2013B9AB2FB68DA8711E0F2
:103780003B68002B0BD03B68B3F1FF3F0AD000F041
:1037900013FF0246BB69D31A3A689A4202D8032340
:1037A000FB7726E0FB68DB8F9BB2002BBCD1BA69AC
:1037B0003968F86800F002F90346002B02D0FB6874
:1037C00020221A66FB689B68002B0AD100237B61CC
:1037D000FB681B68DB687B61FB681B689B687B611F
:1037E0007B69FB681B6E002B02D00123FB7700E096
:1037F00000BFFB68012283F85D20FB68002283F88C
:103800005C20FB7F18462037BD4680BD80B584B064
:1038100000AFF860B9607A603B604CE03B68B3F1A0
:10382000FF3F48D03B68002B07D000F0C5FE0246A2
:10383000BB69D31A3A689A423DD8FB681B685A683C
:10384000FB681B6822F0E0025A60FB685B68B3F516
:10385000827F11D1FB689B68B3F5004F04D0FB68F1
:103860009B68B3F5806F07D1FB681B681A68FB681B
:103870001B6822F040021A60FB689B6AB3F5005F88
:103880000FD1FB681B681A68FB681B6822F40052A2
:103890001A60FB681B681A68FB681B6842F40052D8
:1038A0001A60FB68012283F85D20FB68002283F820
:1038B0005C2003230EE0FB681B689A68BB6813401A
:1038C000BA689A4201D1012200E000227B689A4244
:1038D000A4D1002318461037BD4680BD80B586B000
:1038E00000AFF860B9607A603B605AE0BB68B3F53E
:1038F000C06F09D17B68002B06D1FB681B680C33B5
:103900001B78DBB2FB75FB7D3B68B3F1FF3F48D012
:103910003B68002B07D000F04FFE02463B6AD31AEB
:103920003A689A423DD8FB681B685A68FB681B6876
:1039300022F0E0025A60FB685B68B3F5827F11D128
:10394000FB689B68B3F5004F04D0FB689B68B3F538
:10395000806F07D1FB681B681A68FB681B6822F040
:1039600040021A60FB689B6AB3F5005F0FD1FB68E9
:103970001B681A68FB681B6822F400521A60FB6817
:103980001B681A68FB681B6842F400521A60FB68E7
:10399000012283F85D20FB68002283F85C2003236A
:1039A00008E0FB681B689A68BB6813407A689A4213
:1039B0009CD1002318461837BD4680BD80B586B01F
:1039C00002AFF860B9607A607B680093BB68002240
:1039D0004FF4C051F868FFF781FF0346002B07D072
:1039E000FB681B6E43F02002FB681A66032327E086
:1039F0007B680093BB6800228021F868FFF706FF10
:103A00000346002B07D0FB681B6E43F02002FB68C7
:103A10001A66032314E07B680093BB6800224FF40E
:103A2000C061F868FFF75AFF0346002B07D0FB6818
:103A30001B6E43F02002FB681A66032300E000239C
:103A400018461037BD4680BD80B582B000AF7860A3
:103A50007B68002B01D1012381E07B6893F8413022
:103A6000DBB2002B06D17B68002283F84020786807
:103A700001F094F87B68242283F841207B681B685E
:103A80001A687B681B6822F001021A607B685A681A
:103A90007B681B6822F070621A617B681B689A68F9
:103AA0007B681B6822F400429A607B68DB68012B0C
:103AB00007D17B689A687B681B6842F400429A6071
:103AC00006E07B689A687B681B6842F404429A604F
:103AD0007B68DB68022B04D17B681B684FF40062B3
:103AE0005A607B681B685B687A68126843F00073F1
:103AF00043F4004353607B681B68DA687B681B688B
:103B000022F40042DA607B681A697B685B6942EAEA
:103B100003017B689B691A027B681B680A43DA60B1
:103B20007B68D9697B681A6A7B681B680A431A60DC
:103B30007B681B681A687B681B6842F001021A6088
:103B40007B6800225A647B68202283F841207B68CE
:103B500000221A637B68002283F842200023184663
:103B60000837BD4680BD80B483B000AF786039604F
:103B70007B6893F84130DBB2202B38D17B6893F817
:103B80004030012B01D1022332E07B68012283F80F
:103B900040207B68242283F841207B681B681A68D8
:103BA0007B681B6822F001021A607B681B681A6838
:103BB0007B681B6822F480521A607B681B68196856
:103BC0007B681B683A680A431A607B681B681A683E
:103BD0007B681B6842F001021A607B68202283F830
:103BE00041207B68002283F84020002300E002236C
:103BF00018460C37BD465DF8047B704780B485B02D
:103C000000AF786039600023FB607B6893F8413037
:103C1000DBB2202B39D17B6893F84030012B01D1E6
:103C2000022333E07B68012283F840207B68242252
:103C300083F841207B681B681A687B681B6822F048
:103C400001021A607B681B681B68FB60FB6823F439
:103C50007063FB603B681B02FA681343FB607B6880
:103C60001B68FA681A607B681B681A687B681B68A7
:103C700042F001021A607B68202283F841207B68B1
:103C8000002283F84020002300E002231846143766
:103C9000BD465DF8047B704780B588B000AF2B4B04
:103CA000DB6C2A4A43F00203D364284BDB6C03F03D
:103CB0000203BB60BB68254BDB6C244A43F0040362
:103CC000D364224BDB6C03F004037B607B684FF40E
:103CD0000043FB6001233B6101237B610223BB6145
:103CE00007F10C0319461A48FEF7C6F800224FF4F4
:103CF00000411748FEF73EFAC023FB6001233B61F9
:103D000001237B610223BB6107F10C0319461148B3
:103D1000FEF7B2F80022C0210E48FEF72BFA00226F
:103D20004FF400410A48FEF725FA00228021094895
:103D3000FEF720FA0C2000F0D9FE01228021054870
:103D4000FEF718FA00BF2037BD4680BD00100240C4
:103D5000000400480008004880B582B000AF7860D9
:103D60000B467B807B881946786801F025F800BFF8
:103D70000837BD4680BD000080B582B000AF034665
:103D8000FB71002240210648FEF7F4F9FB1D0121DA
:103D90001846FFF7E1FF00BF0837BD4680BD00BFF2
:103DA0000008004880B582B000AF0346FB710122D5
:103DB00040210648FEF7DEF9FB1D01211846FFF7FA
:103DC000CBFF00BF0837BD4680BD00BF00080048DC
:103DD00080B584B000AF0346FB800023BB81FB8825
:103DE0001B0A9BB2DBB23B73FB88DBB27B73012205
:103DF00040210648FEF7BEF907F10C0302211846E0
:103E0000FFF7AAFF00BF1037BD4680BD000800487D
:103E100090B583B000AF0446084611461A462346C3
:103E2000FB800346BB800B467B8013463B802A20E9
:103E3000FFF7A2FFFB881B0A9BB2DBB21846FFF715
:103E4000B1FFFB88DBB21846FFF7ACFF7B881B0A8B
:103E50009BB2DBB21846FFF7A5FF7B88DBB21846A2
:103E6000FFF7A0FF2B20FFF787FFBB881B0A9BB241
:103E7000DBB21846FFF796FFBB88DBB21846FFF7A8
:103E800091FF3B881B0A9BB2DBB21846FFF78AFF03
:103E90003B88DBB21846FFF785FF2C20FFF76CFF4D
:103EA00000BF0C37BD4690BD80B584B000AF03465F
:103EB000FB8000233B81FB881B0A9BB2DBB23B7279
:103EC000FB88DBB27B72EF23EF2200210020FFF79B
:103ED0009FFF0023BB810DE0BB895B00397A134A49
:103EE000D154BB895B000133797A104AD154BB8924
:103EF0000133BB81BB89B3F5107FEDD30122402193
:103F00000B48FEF737F90023FB8107E04FF490617F
:103F10000648FFF721FFFB890133FB81FB89632BF7
:103F2000F4D900BF1037BD4680BD00BF0C02002091
:103F30000008004890B587B000AF04460846114617
:103F40001A462346FB800346BB800B46FB70134694
:103F5000BB70FB783B743B7C203B3B74FA88BB789E
:103F60005B08DBB2C3F1F0039A4200F30581BA8823
:103F7000BB78C3F1F0039A4200F3FE80BB785B0884
:103F8000DBB29AB2FB8813449BB2013B9CB2BB7874
:103F90009AB2BB8813449BB2013B9BB2B988F888A4
:103FA0002246FFF735FFBB78102B02D0BB78202BC1
:103FB00052D1BB78DB08DBB21A46BB7803F00703AB
:103FC000DBB2002B14BF01230023DBB21344DAB2AF
:103FD000BB785B08DBB212FB03F3FB7300237B753A
:103FE00035E0BB78102B08D13A7C7B7D6549120106
:103FF0000A4413441B78FB750BE0BB78202B40F080
:10400000BD803A7C7B7D6049D2010A4413441B7811
:10401000FB750023BB7514E097F91730002B03DA0A
:104020005A4B1B887B8202E0594B1B887B827B8A20
:104030001846FFF7CDFEFB7D5B00FB75BB7D0133B2
:10404000BB75BB7D072BE7D97B7D01337B757A7D03
:10405000FB7B9A42C5D392E0BB780C2B45D1BB7851
:10406000DB08DBB21A46BB7803F00703DBB2002B98
:1040700014BF01230023DBB21344DAB2BB785B0820
:10408000DBB212FB03F3FB7300237B7528E03A7C61
:10409000797D404813465B0013449B0003440B4466
:1040A0001B78FB750023BB7514E097F91730002BC4
:1040B00003DA364B1B887B8202E0354B1B887B8200
:1040C0007B8A1846FFF784FEFB7D5B00FB75BB7D9A
:1040D0000133BB75BB7D052BE7D97B7D01337B7538
:1040E0007A7DFB7B9A42D2D349E0BB78182B46D12C
:1040F000BB781B01002B00DA0733DB10FB730023B6
:104100007B7534E03A7C797D234813465B00134489
:104110001B0103440B441B78FB757B7D03F00103FB
:10412000DBB2002B02D108237B7401E004237B74F3
:104130000023BB7514E097F91730002B03DA134BFB
:104140001B887B8202E0124B1B887B827B8A18468D
:10415000FFF73EFEFB7D5B00FB75BB7D0133BB754E
:10416000BA7D7B7C9A42E6D37B7D01337B757A7D79
:10417000FB7B9A42C6D302E000BF00E000BF1C37C1
:10418000BD4690BD54E6000814FE00088C060020D1
:1041900000000020E0E1000844EC000890B585B084
:1041A00000AF0446084611461A462346FB800346E4
:1041B000BB800B467B8013463B80FB88FB737A8871
:1041C000FB8813447B803A88BB8813443B8022E001
:1041D000FA887B889A4207D3FB7BFB8097F82030D4
:1041E0009AB2BB881344BB80BA883B889A421BD2E0
:1041F0007B6A1A7897F82030B988F888FFF79AFE1A
:1042000097F820305B08DBB29AB2FB881344FB803E
:104210007B6A01337B627B6A1B787E2B05D87B6AC5
:104220001B781F2BD4D800E000BF00BF1437BD4659
:1042300090BD000080B500AFFFF72EFD0C2000F010
:1042400055FC1120FFF798FD0C2000F04FFC3620A4
:10425000FFF792FD0020FFF7A5FD3A20FFF78CFD48
:104260006520FFF79FFDB220FFF786FD0C20FFF7CA
:1042700099FD0C20FFF796FD0020FFF793FD3320FA
:10428000FFF790FD3320FFF78DFDB720FFF774FD9A
:104290007220FFF787FDBB20FFF76EFD3D20FFF783
:1042A00081FDC020FFF768FD2C20FFF77BFDC220B9
:1042B000FFF762FD0120FFF775FDC320FFF75CFDEE
:1042C0001920FFF76FFDC420FFF756FD2020FFF7F0
:1042D00069FDC620FFF750FD0F20FFF763FDD020DA
:1042E000FFF74AFDA420FFF75DFDA120FFF75AFD6F
:1042F000E020FFF741FDD020FFF754FD0420FFF739
:1043000051FD0D20FFF74EFD1120FFF74BFD13204F
:10431000FFF748FD2B20FFF745FD3F20FFF742FD4B
:104320005420FFF73FFD4C20FFF73CFD1820FFF71E
:1043300039FD0D20FFF736FD0B20FFF733FD1F2061
:10434000FFF730FD2320FFF72DFDE120FFF714FDDF
:10435000D020FFF727FD0420FFF724FD0C20FFF7F6
:1043600021FD1120FFF71EFD1320FFF71BFD2C2060
:10437000FFF718FD3F20FFF715FD4420FFF712FD62
:104380005120FFF70FFD2F20FFF70CFD1F20FFF737
:1043900009FD1F20FFF706FD2020FFF703FD232066
:1043A000FFF700FD2120FFF7E7FC2920FFF7E4FCE1
:1043B000EF23EF2200210020FFF72AFD4FF6FF70C8
:1043C000FFF772FD01224FF400410248FDF7D2FED3
:1043D00000BF80BD0004004880B582B002AFFFF787
:1043E00004F800F0F7F800F0FBFC00F08FFB00F0A1
:1043F0005FFC1D4B1B68184600F01CFBFFF71AFF03
:104400004FF6FF70FFF750FD184B4FF478421A80BB
:10441000174B0193182300931823F02232210A200E
:10442000FFF7BCFE134B0193102300931023F022DF
:104430005A211420FFF7B2FE0F4B01931023009373
:104440001023F02282211420FFF7A8FE0B4B0193CA
:10445000102300931023F022AA210A20FFF79EFECA
:1044600000BFBD4680BD00BF040000208C060020B8
:1044700050D9000864D9000880D900089CD90008E8
:1044800080B58AB000AF4FF0FF337B6200233B6200
:104490003B1D18220021184606F029FD0023FB6071
:1044A00002233B810C4B7B610C4B7B604FF48053B0
:1044B0003B613A1D07F11C031146184602F042FC0D
:1044C00038623B6A002B01D100237B627B6A18466D
:1044D0002837BD4680BD00BFB8D90008FDA9000837
:1044E00080B582B000AF00237B60FFF775FF01F05D
:1044F00099FC78607B68002B01D0012308E04FF421
:10450000E13000F0F7F9FFF7BBFF01F06FFC00238B
:1045100018460837BD4680BD80B400AF164BD3F8AF
:104520008830154A43F47003C2F88830134B1B6877
:10453000124A43F001031360104B00229A600F4BA4
:104540001B680E4A23F0A85323F4102313600B4B6F
:104550004FF48052DA60094B1B68084A23F4802329
:104560001360064B00229A61034B054A9A6000BF14
:10457000BD465DF8047B704700ED00E0001002408E
:104580000000010880B400AF00BFBD465DF8047BA9
:10459000704780B400AFFEE780B400AFFEE780B4A0
:1045A00000AFFEE780B400AFFEE780B400AF00BF0D
:1045B000BD465DF8047B704798B500AF01F09EFCE6
:1045C00003460C46184698BD80B483B000AF7860AF
:1045D0003960FEE780B5AEB000AFFDF73DFC4A4B59
:1045E000D3F89030484A23F01803C2F890301623CD
:1045F0007B670123FB674FF48073C7F8803010237B
:10460000C7F884300123C7F88C300023C7F89030F6
:104610006023C7F894300223C7F89C300123C7F801
:10462000A0300123C7F8A4302823C7F8A8300723F7
:10463000C7F8AC300223C7F8B0300223C7F8B43053
:1046400007F174031846FCF7A7FD0346002B03D0BF
:104650005F212E48FFF7B8FF0F233B6603237B66DD
:104660000023BB660023FB6600233B6707F1600362
:1046700004211846FDF72EF90346002B03D06D21C7
:104680002248FFF7A1FF224B7B6000237B620023BF
:10469000BB620023FB624FF400633B6300237B6338
:1046A0000023BB630023FB634FF080537B654FF017
:1046B0008063FB640123BB600123FB6010233B612B
:1046C00007237B610223BB610223FB614FF08873E8
:1046D0003B623B1D1846FDF765FD0346002B03D0EA
:1046E00087210A48FFF770FF4FF40070FDF75EFB6B
:1046F0000346002B03D08E210448FFF765FF00BF5F
:10470000B837BD4680BD00BF00100240C4D90008C4
:10471000E741080080B58CB000AF78607B681B680B
:10472000554A934224D1554BDB6D544A43F0010363
:10473000D365524BDB6D03F00103BB61BB690323FF
:10474000FB6102233B6200237B620323BB620823DD
:10475000FB6207F11C0319464948FDF78DFB002257
:1047600000214620FEF7FFF84620FEF718F97FE00B
:104770007B681B68434A934226D1404B1B6E3F4ADD
:1047800043F4804313663D4B1B6E03F480437B610F
:104790007B694FF4C063FB6102233B6200237B62B1
:1047A0000323BB620723FB6207F11C0319464FF08A
:1047B0009040FDF761FB002200212520FEF7D3F891
:1047C0002520FEF7ECF853E07B681B682E4A9342E5
:1047D00025D12A4B9B6D294A43F400339365274B1F
:1047E0009B6D03F400333B613B690C23FB610223A7
:1047F0003B6200237B620323BB620723FB6207F15A
:104800001C0319464FF09040FDF736FB00220021B3
:104810002620FEF7A8F82620FEF7C1F828E07B68DE
:104820001B681A4A934223D1144B9B6D134A43F4DD
:1048300080239365114B9B6D03F48023FB60FB6821
:104840003023FB6102233B6200237B620323BB62B4
:104850000723FB6207F11C0319460948FDF70CFB0F
:10486000002200212720FEF77EF82720FEF797F888
:1048700000BF3037BD4680BD0080004000100240C0
:104880000008004800380140004400400048004053
:1048900080B582B000AF144B1B68DB6903F02003C6
:1048A000202B11D1104B1B689B8C9BB2DBB2FB7190
:1048B000FB1D012219460D4800F05CFB0C4B1B68E8
:1048C000184603F01BFD0AE0074B1B68DB6903F089
:1048D0001003102B03D1044B1B6810221A6200BF77
:1048E0000837BD4680BD00BF080A0020940600209E
:1048F0002407002080B584B002AF7860224B1B688B
:10490000224A13607B68214A5360204B00229A6040
:104910001E4B0022DA601D4B00221A611B4B0C2239
:104920005A611A4B00229A61184B0022DA6117482B
:10493000FEF74FF80346002B21D1154B18680023D2
:104940000093144B0022032100F05AFF0F4B1B6809
:104950001A680E4B1B6842F020021A600E4A802132
:10496000002003F059FB00230093002380220B4911
:104970000B4800F0DBFA0B4B01221A6000E000BF8D
:104980000837BD4680BD00BF08000020080A00208F
:104990000C0000209148000824070020A4060020F5
:1049A000940600209006002080B584B000AFF86027
:1049B000B9607A60084B1B68002B07D07B689AB2FD
:1049C0004FF6FF73B9680548FEF754F87B68184640
:1049D0001037BD4680BD00BF90060020080A0020A9
:1049E00080B586B000AFF860B9607A6000237B6163
:1049F0000E4B1B684FF0FF31184603F0D1FB034606
:104A0000002B07D107F1130301221946084800F0D3
:104A100062FB78617B69002BEADDFA7CBB681A7067
:104A2000012318461837BD4680BD00BF240700206B
:104A30009406002080B483B000AF78600A4A7B6897
:104A400013600A4B1B68094A43F080731360084BDC
:104A50001B68074A43F00103136000BF0C37BD46D3
:104A60005DF8047B704700BF28070020FCED00E0E4
:104A7000001000E080B586B000AF7860184B1B686E
:104A80007B61184B1B68184AA2FB03239A0C7B68B6
:104A900002FB03F33B617A693B691344FB6000F05E
:104AA000F1FCB860FA687B699A4206D900BF0C4BEA
:104AB0001B68FA689A42FAD80BE000BF084B1B68E3
:104AC000FA689A42FAD300BF054B1B68FA689A420B
:104AD000FAD8B86800F0DCFC00BF1837BD4680BDCE
:104AE000041000E02807002083DE1B4380B582B05D
:104AF00000AF78607B684FF47A7202FB03F31846CC
:104B0000FFF7B8FF00BF0837BD4680BD80B500AFD6
:104B10001E4B1F4A1A601D4B1E4A5A601B4B002237
:104B20009A601A4B0122DA60184B00221A61174B67
:104B300000225A61154B00229A61144B0022DA615F
:104B4000124B00221A621148FEF77EFF0346002B2B
:104B500003D044211048FFF737FD00210B48FFF731
:104B600002F80346002B03D04B210B48FFF72CFD26
:104B700000210648FFF742F80346002B03D05221DC
:104B80000548FFF721FD00BF80BD00BFCC0A002013
:104B900000540040EC9C901000DA000880B58AB008
:104BA00000AF78607B681B683C4A93421CD1C023ED
:104BB0007B611223BB610123FB6103233B6204235E
:104BC0007B6207F1140319463548FDF755F9354B5B
:104BD0009B6D344A43F400139365324B9B6D03F491
:104BE00000133B613B6954E07B681B682E4A93428B
:104BF0001DD14FF488437B611223BB610123FB610C
:104C000003233B6204237B6207F114031946244803
:104C1000FDF732F9234B9B6D224A43F480039365E1
:104C2000204B9B6D03F48003FB60FB6831E07B68E5
:104C30001B681E4A93422CD180237B611223BB61E7
:104C40000123FB6103233B6204237B6207F114030E
:104C500019464FF09040FDF70FF910237B611223A6
:104C6000BB610123FB6103233B6204237B6207F1E9
:104C7000140319460A48FDF7FFF80A4B9B6D094AD1
:104C800043F400039365074B9B6D03F40003BB6083
:104C9000BB6800BF2837BD4680BD00BF0054004040
:104CA000000400480010024000580040005C004032
:104CB00080B500AF1C4B1D4A1A601B4B4FF482722B
:104CC0005A60194B4FF400429A60174B4FF4E06260
:104CD000DA60154B02221A61134B01225A61124B02
:104CE0004FF400729A61104B0022DA610E4B0022E1
:104CF0001A620D4B00225A620B4B00229A620A4B39
:104D00000722DA62084B00221A63074B08225A6313
:104D10000548FEF79BFB0346002B03D047210448C0
:104D2000FFF752FC00BF80BD640B0020003800403C
:104D300038DA000880B588B000AF78607B681B68FF
:104D4000194A93422CD1194B9B6D184A43F4804366
:104D50009365164B9B6D03F48043BB60BB680823CF
:104D6000FB6002233B6100237B610323BB610523BE
:104D7000FB6107F10C0319460D48FDF77DF84FF470
:104D80000053FB6002233B6100237B610323BB6173
:104D90000523FB6107F10C0319460648FDF76CF883
:104DA00000BF2037BD4680BD0038004000100240E3
:104DB000000800480004004880B582B000AF786069
:104DC0000B467B807A884FF47A7379680348FEF744
:104DD000C7FB034618460837BD4680BD640B00205C
:104DE00080B58AB000AF204BDB6C1F4A43F0040350
:104DF000D3641D4BDB6C03F004033B613B691A4B2E
:104E0000DB6C194A43F08003D364174BDB6C03F06F
:104E10008003FB60FB68144BDB6C134A43F0010317
:104E2000D364114BDB6C03F00103BB60BB680E4B1A
:104E3000DB6C0D4A43F00203D3640B4BDB6C03F0D5
:104E400002037B607B680C237B61084BBB61012301
:104E5000FB6107F1140319460548FDF70DF800BF83
:104E60002837BD4680BD00BF001002400000211061
:104E70000004004880B58AB000AFF860B9607A607D
:104E80000023BB6100237B6200233B62FB681B683D
:104E9000BB61FB687A6A1A607B68002B01D17B6A70
:104EA00040E07868FBF706FB03467B617B683B626A
:104EB00009E03B6A1B78202B02D13B6A00221A7062
:104EC0003B6A01333B627B697A6813443A6A9A42CF
:104ED000EFD30023FB777B683B6219E03B6A1B78CA
:104EE000002B0FD0FB7F002B0CD17A6ABB699A4252
:104EF00008DA7B6A9B00BA6813443A6A1A607B6AD4
:104F000001337B623B6A1B78FB773B6A01333B6270
:104F10007B697A6813443A6A9A42DFD3FB687A6AFB
:104F20001A607B6A18462837BD4680BD80B487B0BA
:104F300000AFF860B9607A603B604FF0FF337B618F
:104F4000FB68002B01D17B690EE0FB68BA681A6030
:104F5000FB687A685A60FB683A6A9A60FB683A684C
:104F6000DA6000237B617B6918461C37BD465DF81B
:104F7000047B704780B58AB000AFF860B9607A6092
:104F80004FF0FF33FB61FB68002B05D0BB68002BA3
:104F900002D07B68002B01D1FB6998E0FB689A681E
:104FA000FB685B689A4203D10023FB61FB698EE0DA
:104FB000FB685A68FB689B68D31A7A689342A8BF5B
:104FC0001346FB61FB697B62BB683B62FB68DA6886
:104FD000FB689B681A44FB685B689A4224DDFB68A7
:104FE000DA68FB689B681344FA68526893FBF2F135
:104FF00002FB01F29B1ABB617B6A7B61FB681A684A
:10500000BB6913443B617B691A46396A386905F00C
:1050100063FFFB689A687B691A44FB689A607A6A46
:105020007B69D31A7B622EE0FB68DA68FB689B68B9
:105030001A447B6A1A44FB685B689A4223DDFB686A
:10504000DA68FB689B681344BB61FB685A68BB69FC
:10505000D31A7B61FB681A68BB6913443B617B69A7
:105060001A46396A386905F037FF7B693A6A134492
:105070003B62FB689A687B691A44FB689A607A6AAB
:105080007B69D31A7B627B6A002B1FDDFB68DA68C1
:10509000FB689B681344FA68526893FBF2F102FBC9
:1050A00001F29B1ABB617B6A7B61FB681A68BB6972
:1050B00013443B617B691A46396A386905F00CFF75
:1050C000FB689A687B691A44FB689A60FB6918461A
:1050D0002837BD4680BD80B58AB000AFF860B960A2
:1050E0007A604FF0FF33FB61FB68002B05D0BB6893
:1050F000002B02D07B68002B01D1FB6969E0FB68C3
:105100009B68002B03D10023FB61FB6961E0FB6816
:105110009B687A689342A8BF1346FB61FB697B6278
:10512000BB683B62FB68DA687B6A1A44FB685B68B1
:105130009A422EDBFB68DB68BB61FB685A68FB6840
:10514000DB68D31A7B61FB681A68BB6913443B6157
:105150007B691A463969386A05F0BEFEFB68DA6871
:105160007B691344FA68526893FBF2F102FB01F287
:105170009A1AFB68DA60FB689A687B69D21AFB6846
:105180009A607A6A7B69D31A7B627B693A6A1344B4
:105190003B627B6A002B1BDDFB68DB68BB617B6AC3
:1051A0007B61FB681A68BB6913443B617B691A46E3
:1051B0003969386A05F090FEFB68DA687B691A4441
:1051C000FB68DA60FB689A687B69D21AFB689A60B0
:1051D000FB6918462837BD4680BD000080B485B005
:1051E00000AF78604FF0FF33FB60084B1B68002B6B
:1051F00004D1064A7B6813600023FB60FB681846F5
:105200001437BD465DF8047B704700BF2C070020B3
:1052100090B589B002AFF860B9607A603B60002356
:105220007B61114B1B68002B18D00F4B1B685B6810
:10523000002B13D00C4B1B685B681B68002B0DD038
:10524000094B1B685B681C68FB6A0193BB6A00938F
:105250003B687A68B968F868A04778617B69184646
:105260001C37BD4690BD00BF2C07002080B582B022
:1052700000AF78600C4B1B68002B11D00A4B1B68E9
:105280005B68002B0CD0084B1B685B68DB68002B4D
:1052900006D0054B1B685B68DB687868984700BFE1
:1052A00000BF0837BD4680BD2C07002080B584B004
:1052B00000AF78600023FB600D4B1B68002B12D001
:1052C0000B4B1B685B68002B0DD0094B1B685B68A0
:1052D0001B6C002B07D0064B1B685B681B6C7A6845
:1052E00010469847F860FB6818461037BD4680BDE9
:1052F0002C07002080B582B000AF78600C4B1B6893
:10530000002B11D00A4B1B685B68002B0CD0084B9C
:105310001B685B685B6C002B06D0054B1B685B68E9
:105320005B6C7868984700BF00BF0837BD4680BDFA
:105330002C07002080B584B000AF7860396000236E
:10534000FB600E4B1B68002B13D00C4B1B685B687B
:10535000002B0ED0094B1B685B689B6C002B08D0A0
:10536000064B1B685B689B6C3A68114678689847E7
:10537000F860FB6818461037BD4680BD2C0700203A
:1053800080B584B000AF786039607B683A6802FB12
:1053900003F31846FFF78AFFF860FB68002B08D07C
:1053A0007B683A6802FB03F31A460021F86805F0AF
:1053B0009EFDFB6818461037BD4680BD80B582B0A3
:1053C00000AF4FF0FF337B600C4B1B68002B10D0FD
:1053D0000A4B1B685B68002B0BD0084B1B685B6893
:1053E0001B6D002B05D0054B1B685B681B6D984738
:1053F00078607B6818460837BD4680BD2C070020C2
:1054000080B582B000AF4FF0FF337B6000F09CFCB2
:1054100078607B6818460837BD4680BD72B615486F
:105420001549026841EA0201016014484FF0010188
:10543000016013484168016001688A884FF01003D9
:1054400042EA03028A80D1F800C04FF002030CF157
:10545000240C0CF1040CDCF80000DCF814E0DCF89F
:1054600018200CF1200C8CF3098862B683F31488A1
:10547000104700BF20ED00E00000FFFFC80F002034
:10548000C00F0020EFF3108072B6704700BF1846BF
:1054900080F31088704700BF02484FF080510160D0
:1054A000704700BF04ED00E0EFF3108C72B6194AAC
:1054B000126822B12DE900509047BDE80050EFF38B
:1054C00009801EF0100F01D120ED108B40F804ED83
:1054D00020E9F01F104D4FF010082E683060B7889B
:1054E00027EA0807B78068682860878847EA0807BE
:1054F00087800168B1E8F01F51F804EB1EF0100F2F
:1055000001D1B1EC108B81F309888CF310887047BE
:1055100000BF000038070020C00F002080B483B017
:1055200000AF03463960FB7197F90730002B0ADBA7
:105530003B68DAB20C4997F907301201D2B20B443A
:1055400083F800230AE03B68DAB20849FB7903F0EC
:105550000F03043B1201D2B20B441A7600BF0C3782
:10556000BD465DF8047B704700E100E000ED00E01F
:1055700080B582B000AF78607B68013BB3F1807F7B
:1055800001D301230FE00A4A7B68013B53600F21DE
:105590004FF0FF30FFF7C2FF054B00229A60044B2B
:1055A00007221A60002318460837BD4680BD00BF99
:1055B00010E000E090B585B002AF1D4B1B68002BDA
:1055C00004D01B4B1B68B3F57A7F01D2194B2AE03C
:1055D00000230093184B002207214FF0FF3000F00A
:1055E0000FF9134B1B68154AA2FB03239B09144AAE
:1055F0001360144A4FF000034FF00004C2E9003476
:105600000B4B1B680D4AA2FB03239B091846FFF7AF
:10561000AFFF78607B68012B01D10B4B03E00B4B94
:1056200001221A60002318460C37BD4690BD00BF0A
:10563000040000200004000265720008D34D6210CF
:105640004011002038110020020400024007002011
:1056500080B485B000AF78607B6803F00703FB601F
:105660000C4BDB68BB60BA684FF6FF031340BB60AE
:10567000FB681A02BB68134343F0BF6343F4003373
:10568000BB60044ABB68D36000BF1437BD465DF8F9
:10569000047B704700ED00E080B483B000AF0346A8
:1056A000FB7197F90730002B0BDBFB7903F01F022E
:1056B000074997F907305B09012000FA02F241F827
:1056C000232000BF0C37BD465DF8047B704700BF48
:1056D00000E100E080B483B000AF03463960FB71A5
:1056E00097F90730002B0ADB3B68DAB20C4997F9CF
:1056F00007301201D2B20B4483F800230AE03B6862
:10570000DAB20849FB7903F00F03043B1201D2B26D
:105710000B441A7600BF0C37BD465DF8047B70471A
:1057200000E100E000ED00E080B483B000AFEFF3F3
:1057300005837B607B6818460C37BD465DF8047BAB
:105740007047000080B500AF054806F035F8FFF758
:10575000EBFF03461A460349034806F02DF8FEE71F
:1057600070DA0008EC2D010878DA000880B500AF87
:10577000FFF7E8FF00BF80BD80B582B000AFFFF744
:1057800081FE7860154B1B680133144A13607868FA
:10579000FFF77EFEFFF7C8FF38603B680F3B3B60BA
:1057A0000F4A3B6852F82330002B05D00C4A3B6867
:1057B00052F82330984701E0FFF7C4FFFFF762FE7D
:1057C0007860064B1B68013B044A13607868FFF75A
:1057D0005FFE00BF0837BD4680BD00BF3007002018
:1057E000C80B002080B500AF034B044A9A60072025
:1057F000FFF72EFF00BF80BD00ED00E000000008B5
:1058000080B586B000AFF8607B600B467B811346A5
:105810003B817B68002B01D1164B26E0FB68EF2B08
:1058200005D9FB68B3F1FF3F01D0134B1DE07B8925
:10583000072B01D9114B18E0FFF724FE7861FB68B4
:1058400001330F497A6841F82320FB685BB21846A0
:10585000FFF722FFFB685BB27A8911461846FFF713
:1058600039FF7869FFF714FE002318461837BD4644
:1058700080BD00BF01090002000900020509000205
:10588000C80B002080B500AFFFF706FE00BF80BD4B
:1058900080B582B000AFFFF7F5FD786000F024FC22
:1058A0000346283B0B4A53600A4B1A68094B5B6856
:1058B0009A4209D0084B1B88002B05D17868FFF766
:1058C000E7FDFFF7E9FD02E07868FFF7E1FD083743
:1058D000BD4680BDC00F0020BC0F002080B400AFCB
:1058E00072B6FEE780B586B000AF786039607B683D
:1058F000DB687B617B689B687A6913443B617B68EA
:105900009B681A464FF0CA31786905F0F0FA7B6956
:105910004FF0CC321A603B69483B3B613B69FB600E
:10592000FB684FF004321A60FB684FF005325A6092
:10593000FB684FF006329A60FB684FF00732DA607E
:10594000FB684FF008321A61FB684FF009325A6168
:10595000FB684FF010329A61FB684FF01132DA6148
:10596000FB6800221A62FB686FF002025A627B68D1
:105970001A69FB689A62FB684FF00132DA62FB68D1
:105980004FF002321A63FB684FF003325A63FB6830
:105990004FF012329A63084AFB68DA63074AFB68E1
:1059A0001A64FB684FF080725A647B683A691A6027
:1059B00000BF1837BD4680BDDD580008316B0008B8
:1059C00080B584B000AF78600823FB607B68DB683B
:1059D00003F148027B68DA607B68DB68BB60064BDA
:1059E0001B68FA68B968184603F074F8034618464D
:1059F0001037BD4680BD00BF8C0F002090B585B02C
:105A000000AFFFF791FE0346002B06D04FF00003D6
:105A10004FF00004C7E902340AE0FFF733FD786075
:105A2000074BD3E90034C7E902347868FFF730FD4B
:105A3000D7E90234184621461437BD4690BD00BF51
:105A40003811002080B582B000AF786039603868C6
:105A500000F097F9034618460837BD4680BD80B56B
:105A600084B000AFF860B9607A607968B86800F017
:105A7000A2F9034618461037BD4680BD80B584B0F4
:105A800000AFF860B9607A607968B86800F085F9AD
:105A9000034618461037BD4680BD80B582B000AFC2
:105AA00078603960386800F061F900BF0837BD469A
:105AB00080BD80B582B000AF78607B68184601F089
:105AC000B7FA00BF0837BD4680BD80B58EB000AFC5
:105AD000F860B9607A603B6000237B6300233B631E
:105AE00007F1140318220021184605F000FA7B681C
:105AF000FB617B6C9BB23B83FB687B62BB687B6119
:105B00003B683B6207F1140207F12C03114618466B
:105B100001F018F938633B6B002B01D07B6B02E07E
:105B2000FB6A7B637B6B18463837BD4680BD80B50A
:105B300084B000AF78604FF0FF33FB607B68002BD0
:105B400009D07B68BB60B86801F072F90346002B8E
:105B500001D10023FB60FB6818461037BD4680BDAD
:105B600080B400AFFEE780B582B000AF786078689F
:105B700002F0C8FC0346002B01D1012300E0002302
:105B800018460837BD4680BD80B582B000AF78604A
:105B90007B684FF0FF31184602F070FD0346002B82
:105BA00001D1012300E0002318460837BD4680BD1F
:105BB00080B582B000AF78607B68184602F034FE92
:105BC0000346002B01D1012300E0002318460837CB
:105BD000BD4680BD80B582B000AF78607B68184656
:105BE00002F0ECFC0346002B01D1012300E000236E
:105BF00018460837BD4680BD80B584B000AFF86058
:105C0000B9607A607B689BB2BA6891B2FA6818464C
:105C100002F002FA0346002B01D1012300E0002329
:105C200018461037BD4680BD80B582B000AF7860A1
:105C300039603B68B3F1FF3F02D14FF0FF333B6067
:105C40007B683A681146184602F0AAFA0346002B10
:105C500001D1012300E0002318460837BD4680BD6E
:105C600080B582B000AF78607B68184602F046FBD2
:105C70000346002B01D1012300E00023184608371A
:105C8000BD4680BD80B582B000AF78607B681846A5
:105C900002F024FA0346002B01D1012300E0002387
:105CA00018460837BD4680BD80B584B000AF786027
:105CB0000023FB607B68002B0DDD094B1B687A68B5
:105CC0001146184602F0E3FEF8607B681A46002190
:105CD000F86805F00CF9FB6818461037BD4680BD22
:105CE0008C0F002080B582B000AF7860044B1B6839
:105CF0007968184602F0FEFE00BF0837BD4680BD39
:105D00008C0F002098B500AFFFF778FE03460C46D5
:105D10001846214698BD80B400AFFEE780B586B036
:105D200002AFF860B9607A603B60F868BB6899B20E
:105D30007B689AB2BB6900933B68FFF761FD03463D
:105D400018461037BD4680BD80B582B000AF4FF019
:105D5000FF337B600448FFF741FA78607B681846A0
:105D60000837BD4680BD00BF582E010880B582B0FF
:105D700000AF78607868FFF7BDFA00BF0837BD460E
:105D800080BD80B582B000AF78607868FFF78EFA8A
:105D9000034618460837BD4680BD80B582B000AFC7
:105DA0007860396039687868FFF7EAFA0346184680
:105DB0000837BD4680BD80B582B000AF78603960DD
:105DC00039687868FFF7B6FA034618460837BD46C3
:105DD00080BD000080B400AF034B10221A6000BFEA
:105DE000BD465DF8047B7047B80F002080B582B0D7
:105DF00000AFFFF7DFFB78607B68002B07D0074818
:105E000005F0DAFC064805F05FFD7B6802E0FFF76D
:105E100005FB7B6818460837BD4680BD90DA000850
:105E200098DA000880B582B000AFFFF7D3FF02F028
:105E3000C1FD78607B68002B08D02B4805F0BCFCC6
:105E400079682A4805F0B8FC7B6848E0FFF7CAFC8F
:105E500000F0EAFC78607B68002B07D0224805F050
